{
  "contractName": "Votacion",
  "abi": [
    {
      "constant": true,
      "inputs": [
        {
          "name": "",
          "type": "bytes32"
        }
      ],
      "name": "candidatos",
      "outputs": [
        {
          "name": "",
          "type": "bool"
        }
      ],
      "payable": false,
      "stateMutability": "view",
      "type": "function"
    },
    {
      "constant": true,
      "inputs": [
        {
          "name": "",
          "type": "bytes32"
        }
      ],
      "name": "votosRecibidos",
      "outputs": [
        {
          "name": "",
          "type": "uint8"
        }
      ],
      "payable": false,
      "stateMutability": "view",
      "type": "function"
    },
    {
      "inputs": [
        {
          "name": "nombreCandidatos",
          "type": "bytes32[]"
        }
      ],
      "payable": false,
      "stateMutability": "nonpayable",
      "type": "constructor"
    },
    {
      "constant": true,
      "inputs": [
        {
          "name": "candidato",
          "type": "bytes32"
        }
      ],
      "name": "votosTotales",
      "outputs": [
        {
          "name": "",
          "type": "uint8"
        }
      ],
      "payable": false,
      "stateMutability": "view",
      "type": "function"
    },
    {
      "constant": false,
      "inputs": [
        {
          "name": "candidato",
          "type": "bytes32"
        }
      ],
      "name": "votar",
      "outputs": [],
      "payable": false,
      "stateMutability": "nonpayable",
      "type": "function"
    },
    {
      "constant": true,
      "inputs": [
        {
          "name": "candidato",
          "type": "bytes32"
        }
      ],
      "name": "candidatoEsValido",
      "outputs": [
        {
          "name": "",
          "type": "bool"
        }
      ],
      "payable": false,
      "stateMutability": "view",
      "type": "function"
    }
  ],
  "bytecode": "0x6060604052341561000f57600080fd5b6040516103d43803806103d48339810160405280805182019190505060008090505b81518110156100dc576001806000848481518110151561004d57fe5b906020019060200201516000191660001916815260200190815260200160002060006101000a81548160ff0219169083151502179055506000806000848481518110151561009757fe5b906020019060200201516000191660001916815260200190815260200160002060006101000a81548160ff021916908360ff1602179055508080600101915050610031565b50506102e7806100ed6000396000f30060606040526004361061006d576000357c0100000000000000000000000000000000000000000000000000000000900463ffffffff1680630d098b4e146100725780631f5d931214610099578063bbabb3ba146100d8578063da88d51e14610119578063f38e2f0c14610158575b600080fd5b341561007d57600080fd5b610097600480803560001916906020019091905050610199565b005b34156100a457600080fd5b6100be6004808035600019169060200190919050506101fd565b604051808215151515815260200191505060405180910390f35b34156100e357600080fd5b6100fd600480803560001916906020019091905050610236565b604051808260ff1660ff16815260200191505060405180910390f35b341561012457600080fd5b61013e60048080356000191690602001909190505061027b565b604051808215151515815260200191505060405180910390f35b341561016357600080fd5b61017d60048080356000191690602001909190505061029b565b604051808260ff1660ff16815260200191505060405180910390f35b600115156101a6826101fd565b15151415156101b457600080fd5b6001600080836000191660001916815260200190815260200160002060008282829054906101000a900460ff160192506101000a81548160ff021916908360ff16021790555050565b60006001151560016000846000191660001916815260200190815260200160002060009054906101000a900460ff161515149050919050565b6000610241826101fd565b151561024c57600080fd5b600080836000191660001916815260200190815260200160002060009054906101000a900460ff169050919050565b60016020528060005260406000206000915054906101000a900460ff1681565b60006020528060005260406000206000915054906101000a900460ff16815600a165627a7a723058206b493e363e5fa243663cecf556780ce14eb1a8ff3ab4df2f9d00d46e56aaa5ab0029",
  "source": "pragma solidity ^0.4.0;\r\n\r\ncontract Votacion {\r\n\r\n  mapping (bytes32 => uint8) public votosRecibidos; //mapping que asocia numero de votos a candidato\r\n  mapping (bytes32 => bool) public candidatos; //mapping para saber si un candidato es válido\r\n\r\n  function Votacion(bytes32[] nombreCandidatos) public {\r\n    for(uint i = 0; i < nombreCandidatos.length; i++) {\r\n      candidatos[nombreCandidatos[i]] = true;\r\n      votosRecibidos[nombreCandidatos[i]] = 0;\r\n    }\r\n  }\r\n\r\n  // Numero total de votos recibidos por un candidato\r\n  function votosTotales(bytes32 candidato) constant public returns (uint8) {\r\n    require(candidatoEsValido(candidato));\r\n    return votosRecibidos[candidato];\r\n  }\r\n\r\n  // Incrementa en 1 el numero de votos de un candidato\r\n  function votar(bytes32 candidato) public {\r\n    require(candidatoEsValido(candidato) == true);\r\n    votosRecibidos[candidato] += 1;\r\n  }\r\n\r\n  // Comprueba que un candidato existe\r\n  function candidatoEsValido(bytes32 candidato) constant public returns (bool) {\r\n    return (candidatos[candidato] == true);\r\n  }\r\n}\r\n",
  "sourcePath": "C:\\Users\\asuar\\Documents\\Blog\\repositorio\\aprendeblockchain\\Ethereum\\Truffle\\DappVotacion\\contracts\\Votacion.sol",
  "compiler": {
    "name": "solc",
    "version": "0.4.21+commit.dfe3193c.Emscripten.clang"
  },
  "schemaVersion": "2.0.0",
  "updatedAt": "2018-04-24T21:35:28.754Z"
}